{
    "_format": "hh-sol-artifact-1",
    "contractName": "WavePortal",
    "sourceName": "contracts/WavePortal.sol",
    "abi": [
        {
            "inputs": [],
            "stateMutability": "nonpayable",
            "type": "constructor"
        },
        {
            "inputs": [],
            "name": "getTotalWaves",
            "outputs": [
                {
                    "internalType": "uint256",
                    "name": "",
                    "type": "uint256"
                }
            ],
            "stateMutability": "view",
            "type": "function"
        },
        {
            "inputs": [],
            "name": "wave",
            "outputs": [],
            "stateMutability": "nonpayable",
            "type": "function"
        },
        {
            "inputs": [
                {
                    "internalType": "address",
                    "name": "",
                    "type": "address"
                }
            ],
            "name": "waves",
            "outputs": [
                {
                    "internalType": "uint256",
                    "name": "",
                    "type": "uint256"
                }
            ],
            "stateMutability": "view",
            "type": "function"
        }
    ],
    "bytecode": "0x608060405234801561001057600080fd5b5061003c6040518060600160405280602581526020016109676025913961004160201b6102481760201c565b6101bb565b6100dd816040516024016100559190610199565b6040516020818303038152906040527f41304fac000000000000000000000000000000000000000000000000000000007bffffffffffffffffffffffffffffffffffffffffffffffffffffffff19166020820180517bffffffffffffffffffffffffffffffffffffffffffffffffffffffff83818316178352505050506100e060201b60201c565b50565b60008151905060006a636f6e736f6c652e6c6f679050602083016000808483855afa5050505050565b600081519050919050565b600082825260208201905092915050565b60005b83811015610143578082015181840152602081019050610128565b60008484015250505050565b6000601f19601f8301169050919050565b600061016b82610109565b6101758185610114565b9350610185818560208601610125565b61018e8161014f565b840191505092915050565b600060208201905081810360008301526101b38184610160565b905092915050565b61079d806101ca6000396000f3fe608060405234801561001057600080fd5b50600436106100415760003560e01c80632581ccd1146100465780636fe15b44146100765780639a2cdc0814610080575b600080fd5b610060600480360381019061005b9190610544565b61009e565b60405161006d919061058a565b60405180910390f35b61007e6100b6565b005b610088610166565b604051610095919061058a565b60405180910390f35b60016020528060005260406000206000915090505481565b60016000808282546100c891906105d4565b9250508190555060018060003373ffffffffffffffffffffffffffffffffffffffff1673ffffffffffffffffffffffffffffffffffffffff168152602001908152602001600020600082825461011e91906105d4565b925050819055506101646040518060400160405280600d81526020017f2573206861732077617665642100000000000000000000000000000000000000815250336102e1565b565b60006101a96040518060400160405280601781526020017f5765206861766520256420746f74616c2077617665732100000000000000000081525060005461037d565b6102286040518060400160405280601a81526020017f416464726573732025732077617665642025642074696d65732100000000000081525033600160003373ffffffffffffffffffffffffffffffffffffffff1673ffffffffffffffffffffffffffffffffffffffff16815260200190815260200160002054610419565b61024060405180602001604052806000815250610248565b600054905090565b6102de8160405160240161025c9190610698565b6040516020818303038152906040527f41304fac000000000000000000000000000000000000000000000000000000007bffffffffffffffffffffffffffffffffffffffffffffffffffffffff19166020820180517bffffffffffffffffffffffffffffffffffffffffffffffffffffffff83818316178352505050506104b8565b50565b61037982826040516024016102f79291906106c9565b6040516020818303038152906040527f319af333000000000000000000000000000000000000000000000000000000007bffffffffffffffffffffffffffffffffffffffffffffffffffffffff19166020820180517bffffffffffffffffffffffffffffffffffffffffffffffffffffffff83818316178352505050506104b8565b5050565b61041582826040516024016103939291906106f9565b6040516020818303038152906040527fb60e72cc000000000000000000000000000000000000000000000000000000007bffffffffffffffffffffffffffffffffffffffffffffffffffffffff19166020820180517bffffffffffffffffffffffffffffffffffffffffffffffffffffffff83818316178352505050506104b8565b5050565b6104b383838360405160240161043193929190610729565b6040516020818303038152906040527f0d26b925000000000000000000000000000000000000000000000000000000007bffffffffffffffffffffffffffffffffffffffffffffffffffffffff19166020820180517bffffffffffffffffffffffffffffffffffffffffffffffffffffffff83818316178352505050506104b8565b505050565b60008151905060006a636f6e736f6c652e6c6f679050602083016000808483855afa5050505050565b600080fd5b600073ffffffffffffffffffffffffffffffffffffffff82169050919050565b6000610511826104e6565b9050919050565b61052181610506565b811461052c57600080fd5b50565b60008135905061053e81610518565b92915050565b60006020828403121561055a576105596104e1565b5b60006105688482850161052f565b91505092915050565b6000819050919050565b61058481610571565b82525050565b600060208201905061059f600083018461057b565b92915050565b7f4e487b7100000000000000000000000000000000000000000000000000000000600052601160045260246000fd5b60006105df82610571565b91506105ea83610571565b9250828201905080821115610602576106016105a5565b5b92915050565b600081519050919050565b600082825260208201905092915050565b60005b83811015610642578082015181840152602081019050610627565b60008484015250505050565b6000601f19601f8301169050919050565b600061066a82610608565b6106748185610613565b9350610684818560208601610624565b61068d8161064e565b840191505092915050565b600060208201905081810360008301526106b2818461065f565b905092915050565b6106c381610506565b82525050565b600060408201905081810360008301526106e3818561065f565b90506106f260208301846106ba565b9392505050565b60006040820190508181036000830152610713818561065f565b9050610722602083018461057b565b9392505050565b60006060820190508181036000830152610743818661065f565b905061075260208301856106ba565b61075f604083018461057b565b94935050505056fea26469706673582212205519a33c77ac661518bc6a8389b0765178a1e4cf84a65de480bf9271b3ef2c4864736f6c63430008110033596f20796f2c204920616d206120636f6e747261637420616e64204920616d20736d617274",
    "linkReferences": {},
    "deployedLinkReferences": {}
}